:020000020000FC
:040000000C94240038
:100044000C9443006FEF6DBF61E26EBF6FEF67B951
:1000540068B92198209A289A6FEF60BB61B9662726
:1000640061BB62B96D9A759A08E36AD083D00CE0DB
:1000740067D080D006E064D07DD001E061D07AD032
:100084001AC0FF93EF93DF93CF93BF93AF937F9304
:100094006F933F930F930E94850058B944275527C7
:1000A4000F913F916F917F91AF91BF91CF91DF916C
:1000B400EF91FF91189568E06093810064EF60937D
:1000C400890063E2609388006091810064606C7FC2
:1000D4006093810062E060936F0078940E947300E3
:1000E400FDCF199908950BD0343011F0339508954C
:1000F4003327439566274613089553950895199910
:1001040001C0FDCF089501E01BD034D000E364E6C4
:1001140046171AF0461B0395FBCF002F1CD02AD09C
:1001240000E36AE046171AF0461B0395FBCF002F45
:1001340012D020D000E3040F002F0DD01BD008955F
:1001440001BB0000169A0000000000001698000091
:1001540000000000089501BB179A00000000000091
:10016400169A00000000000016980000000000002D
:10017400179808950F93002700BB01BB159A000040
:10018400169A0000000000000FB1169807FDF7CF83
:1001940015980FEF00BB0F9108958F939F939FE0E5
:1001A4008CE90197F1F79F918F910895F6DFF5DFC0
:1001B400F4DFF3DFF2DF0895F9DFF8DFF7DFF6DFCE
:0601C400F5DFF4DF0895F1
:00000001FF
