:020000020000FC
:040000000C942C0030
:100044000C94530031323341343536423738394316
:100054002A3023446FEF6DBF61E26EBF60EF60939F
:100064000A016FEF6FE060930B016FEF67B968B936
:1000740066276AB963E06BB96FEF60BB61B9662745
:1000840061BB62B96D9A759A08E337D150D10CE01F
:1000940034D14DD106E031D14AD101E02ED147D13E
:1000A40028C0FF93EF93DF93CF93BF93AF937F93D6
:1000B4006F930F931F920F920E9460010E9461013F
:1000C400103009F029F411E065E568B90C946F006B
:1000D40010E06AEA68B90C946F000F901F900F91BA
:1000E4006F917F91AF91BF91CF91DF91EF91FF918C
:1000F400189568E06093810064EF6093890063E27F
:10010400609388006091810064606C7F60938100DB
:1001140062E060936F0078940E9494000E943E0114
:10012400FBCF08956FEEA9E0B2E06C9360E0A7E026
:10013400B2E06C93A7E0B2E06C91643091F3A9E073
:10014400B2E06C9160930B0114D1609109016F705E
:10015400AAE0B2E06C936F3009F161E0A8E0B2E08C
:100164006C9360E0A6E0B2E06C93A6E0B2E06C9120
:100174006430A1F0AAE0B2E06C91762FA8E0B2E07E
:100184006C917623C1F0A6E0B2E06C9163956C9318
:10019400A8E0B2E06C91660F6C93E7CFA9E0B2E0FF
:1001A4006C91660F61606C93A7E0B2E06C9163950B
:1001B4006C930C949C0055D0E8E4F0E064E0A6E075
:1001C400B2E07C91679FE00DF11DA7E0B2E07C9165
:1001D400E70F08F4F3956491623371F0663391F09C
:1001E4006533B1F06433D1F06133F1F0633311F16D
:1001F400683331F10C949300A5E0B2E06EE46C93A3
:100204000C949300A5E0B2E065E46C930C94930025
:10021400A5E0B2E063E56C930C949300A5E0B2E032
:1002240067E56C930C949300A5E0B2E065E56C93EC
:100234000C949300A5E0B2E064E46C930C949300F6
:10024400A0E0B2E06C91603021F0613031F00C94A8
:10025400930061E06C930C94930060E06C930C94B5
:10026400930060910901A8E0B2E07C91672309F44E
:10027400F8CF7FD008950895489B04D0499B10D0AF
:100284000C943D0108D0A4E0B2E06C916A9567FD3E
:1002940060E06C930895489901C0FDCF6AD0089539
:1002A40008D0A4E0B2E06C91639567FD6FE76C93AE
:1002B4000895499901C0FDCF5CD00895089501E0E7
:1002C4001CD035D00FEC19D032D0A5E0B2E06C913F
:1002D400062F1ED02CD00EEC10D029D06FE2062FA2
:1002E40017D025D00DEC09D022D0A4E0B2E06C9157
:1002F400605D062F0DD01BD0089501BB0000169A37
:10030400000000000000169800000000000008959E
:1003140001BB179A000000000000169A00000000BC
:1003240000001698000000000000179808950F932D
:10033400002700BB01BB159A0000169A00000000BC
:1003440000000FB1169807FDF7CF15980FEF00BB0B
:100354000F9108958F939F939FE08CE90197F1F794
:100364009F918F910895F6DFF5DFF4DFF3DFF2DF7D
:100374000895F9DFF8DFF7DFF6DFF5DFF4DF08953E
:00000001FF
