:020000020000FC
:100000004BC03132334134353642373839432A30E8
:1000100023448F939F939FE08CE90197F1F79F9181
:100020008F910895F6DFF5DFF4DFF3DFF2DF089557
:10003000F9DFF8DFF7DFF6DFF5DFF4DF089541BB26
:100040000000169A00000000000016980000000052
:100050000000089541BB179A000000000000169AA6
:100060000000000000001698000000000000179833
:1000700008954F93442740BB41BB159A0000169A40
:100080000000000000004FB1169847FDF7CF15980B
:100090004FEF40BB4F91089541E240933E004FEF38
:1000A00040933D0040EF40930A014FEF47B948B9F4
:1000B0004FE040930B01C1E0D2E04FEF40BB41B9AC
:1000C000442741BB42B96D9A759A48E3B8DFD1DF46
:1000D0004CE0B5DFCEDF46E0B2DFCBDF41E0AFDFA3
:1000E000C8DF3FEE11271430E1F330930B014FEFDF
:1000F000409109014F704F3059F021E00027043042
:1001000039F0542F522349F00395220F0C947F00AD
:10011000330F316013950C947300B7D0A0E0B2E0B8
:10012000E2E0F0E064E0609FE00DF11DE10F08F413
:10013000F39564910C949C006A3261F0633279F01B
:100140006134E9F06234D9F06334D9F06434E9F011
:100150000C94CA0050E05C9379930C94710050E0C9
:100160005C937993A1E0B2E07D914D91749F702DE5
:100170004D91741B7C93C1E0D2E00C94DC000C9494
:10018000710050E05C930C94170150E05C937993FC
:100190000C94710060535C91503029F4762F51E03B
:1001A0005C930C94D9004AE0749F702D760F0C94E8
:1001B000D90078B90C94710041E041DF5ADF372E45
:1001C00078B977232AF45DE2452F44DF52DF719539
:1001D00044E650E374171AF0741B5395FBCF452F78
:1001E00039DF47DF4AE050E374171AF0741B539568
:1001F000FBCF452F2FDF3DDF50E3570F452F2ADF81
:1002000038DF732D0C94710041E019DF32DF78B9CB
:1002100048E0770F10F451E301C050E3342E452F2E
:1002200019DF27DF432D4A95A1F70C94710041E0B7
:1002300006DF1FDF372E78B977232AF45DE2452FDA
:1002400009DF17DF719550E3452F04DF12DF58E710
:10025000452F00DF0EDF552772954FE047230DD065
:10026000452FF8DE06DF72954FE0472306D0452F75
:10027000F1DEFFDE732D0C9471004A3018F0495CFA
:10028000542F0895405D542F089540910901422351
:0A02900009F4FBCFCDDE0895FFCF87
:00000001FF
